{
  "_format": "hh-sol-artifact-1",
  "contractName": "Counter",
  "sourceName": "contracts/Counter.sol",
  "abi": [
    {
      "inputs": [],
      "stateMutability": "nonpayable",
      "type": "constructor"
    },
    {
      "inputs": [],
      "name": "callcount",
      "outputs": [],
      "stateMutability": "nonpayable",
      "type": "function"
    },
    {
      "inputs": [],
      "name": "count",
      "outputs": [],
      "stateMutability": "nonpayable",
      "type": "function"
    },
    {
      "inputs": [],
      "name": "counter",
      "outputs": [
        {
          "internalType": "uint256",
          "name": "",
          "type": "uint256"
        }
      ],
      "stateMutability": "view",
      "type": "function"
    },
    {
      "inputs": [],
      "name": "getcount",
      "outputs": [
        {
          "internalType": "uint256",
          "name": "",
          "type": "uint256"
        }
      ],
      "stateMutability": "view",
      "type": "function"
    }
  ],
  "bytecode": "0x608060405234801561001057600080fd5b50600080556101f1806100246000396000f3fe608060405234801561001057600080fd5b506004361061004c5760003560e01c806303dd13601461005157806306661abd1461005b578063146af82b1461006357806361bc221a14610079575b600080fd5b610059610082565b005b6100596100bf565b6000545b60405190815260200160405180910390f35b61006760005481565b600054610090906001610197565b600081905560408051808201909152600881526731b7bab73a32b91d60c11b60208201526100bd916100d2565b565b6000546100cd906001610197565b600055565b61011782826040516024016100e892919061013c565b60408051601f198184030181529190526020810180516001600160e01b03166309710a9d60e41b17905261011b565b5050565b80516a636f6e736f6c652e6c6f67602083016000808483855afa5050505050565b6040815260008351806040840152815b81811015610169576020818701810151606086840101520161014c565b8181111561017a5782606083860101525b50602083019390935250601f91909101601f191601606001919050565b600082198211156101b657634e487b7160e01b81526011600452602481fd5b50019056fea26469706673582212208c08dc7d644586befbd1909c0fa68881f9fb108dc970a9a92257e5bfbb55a50264736f6c63430008040033",
  "linkReferences": {},
  "deployedLinkReferences": {}
}